{
  "_format": "hh-sol-artifact-1",
  "contractName": "GrainyHeroes",
  "sourceName": "contracts/GrainyHeroes.sol",
  "abi": [
    {
      "inputs": [],
      "stateMutability": "nonpayable",
      "type": "constructor"
    },
    {
      "anonymous": false,
      "inputs": [
        {
          "indexed": true,
          "internalType": "address",
          "name": "owner",
          "type": "address"
        },
        {
          "indexed": true,
          "internalType": "address",
          "name": "approved",
          "type": "address"
        },
        {
          "indexed": true,
          "internalType": "uint256",
          "name": "tokenId",
          "type": "uint256"
        }
      ],
      "name": "Approval",
      "type": "event"
    },
    {
      "anonymous": false,
      "inputs": [
        {
          "indexed": true,
          "internalType": "address",
          "name": "owner",
          "type": "address"
        },
        {
          "indexed": true,
          "internalType": "address",
          "name": "operator",
          "type": "address"
        },
        {
          "indexed": false,
          "internalType": "bool",
          "name": "approved",
          "type": "bool"
        }
      ],
      "name": "ApprovalForAll",
      "type": "event"
    },
    {
      "anonymous": false,
      "inputs": [
        {
          "indexed": true,
          "internalType": "address",
          "name": "from",
          "type": "address"
        },
        {
          "indexed": true,
          "internalType": "address",
          "name": "to",
          "type": "address"
        },
        {
          "indexed": true,
          "internalType": "uint256",
          "name": "tokenId",
          "type": "uint256"
        }
      ],
      "name": "Transfer",
      "type": "event"
    },
    {
      "inputs": [],
      "name": "COST_TO_MINT",
      "outputs": [
        {
          "internalType": "uint256",
          "name": "",
          "type": "uint256"
        }
      ],
      "stateMutability": "view",
      "type": "function"
    },
    {
      "inputs": [],
      "name": "amountMintedHeroes",
      "outputs": [
        {
          "internalType": "uint256",
          "name": "",
          "type": "uint256"
        }
      ],
      "stateMutability": "view",
      "type": "function"
    },
    {
      "inputs": [
        {
          "internalType": "address",
          "name": "to",
          "type": "address"
        },
        {
          "internalType": "uint256",
          "name": "tokenId",
          "type": "uint256"
        }
      ],
      "name": "approve",
      "outputs": [],
      "stateMutability": "nonpayable",
      "type": "function"
    },
    {
      "inputs": [
        {
          "internalType": "address",
          "name": "owner",
          "type": "address"
        }
      ],
      "name": "balanceOf",
      "outputs": [
        {
          "internalType": "uint256",
          "name": "balance",
          "type": "uint256"
        }
      ],
      "stateMutability": "view",
      "type": "function"
    },
    {
      "inputs": [],
      "name": "devDestroy",
      "outputs": [],
      "stateMutability": "nonpayable",
      "type": "function"
    },
    {
      "inputs": [
        {
          "internalType": "uint256",
          "name": "tokenId",
          "type": "uint256"
        }
      ],
      "name": "getApproved",
      "outputs": [
        {
          "internalType": "address",
          "name": "operator",
          "type": "address"
        }
      ],
      "stateMutability": "view",
      "type": "function"
    },
    {
      "inputs": [
        {
          "internalType": "address",
          "name": "owner",
          "type": "address"
        },
        {
          "internalType": "address",
          "name": "operator",
          "type": "address"
        }
      ],
      "name": "isApprovedForAll",
      "outputs": [
        {
          "internalType": "bool",
          "name": "",
          "type": "bool"
        }
      ],
      "stateMutability": "view",
      "type": "function"
    },
    {
      "inputs": [],
      "name": "maxHeroes",
      "outputs": [
        {
          "internalType": "uint256",
          "name": "",
          "type": "uint256"
        }
      ],
      "stateMutability": "view",
      "type": "function"
    },
    {
      "inputs": [],
      "name": "mintHero",
      "outputs": [],
      "stateMutability": "payable",
      "type": "function"
    },
    {
      "inputs": [
        {
          "internalType": "uint256",
          "name": "tokenId",
          "type": "uint256"
        }
      ],
      "name": "ownerOf",
      "outputs": [
        {
          "internalType": "address",
          "name": "owner",
          "type": "address"
        }
      ],
      "stateMutability": "view",
      "type": "function"
    },
    {
      "inputs": [
        {
          "internalType": "address",
          "name": "from",
          "type": "address"
        },
        {
          "internalType": "address",
          "name": "to",
          "type": "address"
        },
        {
          "internalType": "uint256",
          "name": "tokenId",
          "type": "uint256"
        }
      ],
      "name": "safeTransferFrom",
      "outputs": [],
      "stateMutability": "nonpayable",
      "type": "function"
    },
    {
      "inputs": [
        {
          "internalType": "address",
          "name": "from",
          "type": "address"
        },
        {
          "internalType": "address",
          "name": "to",
          "type": "address"
        },
        {
          "internalType": "uint256",
          "name": "tokenId",
          "type": "uint256"
        },
        {
          "internalType": "bytes",
          "name": "data",
          "type": "bytes"
        }
      ],
      "name": "safeTransferFrom",
      "outputs": [],
      "stateMutability": "nonpayable",
      "type": "function"
    },
    {
      "inputs": [
        {
          "internalType": "address",
          "name": "operator",
          "type": "address"
        },
        {
          "internalType": "bool",
          "name": "approved",
          "type": "bool"
        }
      ],
      "name": "setApprovalForAll",
      "outputs": [],
      "stateMutability": "nonpayable",
      "type": "function"
    },
    {
      "inputs": [],
      "name": "totalSupply",
      "outputs": [
        {
          "internalType": "uint256",
          "name": "",
          "type": "uint256"
        }
      ],
      "stateMutability": "view",
      "type": "function"
    },
    {
      "inputs": [
        {
          "internalType": "address",
          "name": "from",
          "type": "address"
        },
        {
          "internalType": "address",
          "name": "to",
          "type": "address"
        },
        {
          "internalType": "uint256",
          "name": "tokenId",
          "type": "uint256"
        }
      ],
      "name": "transferFrom",
      "outputs": [],
      "stateMutability": "nonpayable",
      "type": "function"
    },
    {
      "inputs": [],
      "name": "withdraw",
      "outputs": [],
      "stateMutability": "nonpayable",
      "type": "function"
    }
  ],
  "bytecode": "0x60806040526005600155600060025534801561001a57600080fd5b50336000806101000a81548173ffffffffffffffffffffffffffffffffffffffff021916908373ffffffffffffffffffffffffffffffffffffffff1602179055506111a88061006a6000396000f3fe6080604052600436106100f35760003560e01c80636352211e1161008a578063b344114311610059578063b344114314610302578063b88d4fde1461032d578063e920033714610356578063e985e9c514610360576100f3565b80636352211e1461023457806370a08231146102715780639f5ee96d146102ae578063a22cb465146102d9576100f3565b806323b872dd116100c657806323b872dd146101a057806333d092a6146101c95780633ccfd60b146101f457806342842e0e1461020b576100f3565b8063081812fc146100f8578063095ea7b31461013557806315a64b391461015e57806318160ddd14610175575b600080fd5b34801561010457600080fd5b5061011f600480360381019061011a9190610e54565b61039d565b60405161012c9190610f7f565b60405180910390f35b34801561014157600080fd5b5061015c60048036038101906101579190610e18565b6103da565b005b34801561016a57600080fd5b50610173610518565b005b34801561018157600080fd5b5061018a610551565b6040516101979190610ff5565b60405180910390f35b3480156101ac57600080fd5b506101c760048036038101906101c29190610d0d565b61055b565b005b3480156101d557600080fd5b506101de610789565b6040516101eb9190610ff5565b60405180910390f35b34801561020057600080fd5b50610209610794565b005b34801561021757600080fd5b50610232600480360381019061022d9190610d0d565b61088c565b005b34801561024057600080fd5b5061025b60048036038101906102569190610e54565b61089c565b6040516102689190610f7f565b60405180910390f35b34801561027d57600080fd5b5061029860048036038101906102939190610ca8565b6108d9565b6040516102a59190610ff5565b60405180910390f35b3480156102ba57600080fd5b506102c3610922565b6040516102d09190610ff5565b60405180910390f35b3480156102e557600080fd5b5061030060048036038101906102fb9190610ddc565b610928565b005b34801561030e57600080fd5b50610317610a25565b6040516103249190610ff5565b60405180910390f35b34801561033957600080fd5b50610354600480360381019061034f9190610d5c565b610a2b565b005b61035e610a3d565b005b34801561036c57600080fd5b5061038760048036038101906103829190610cd1565b610b8b565b6040516103949190610f9a565b60405180910390f35b60006005600083815260200190815260200160002060009054906101000a900473ffffffffffffffffffffffffffffffffffffffff169050919050565b60006103e58261089c565b90508073ffffffffffffffffffffffffffffffffffffffff163373ffffffffffffffffffffffffffffffffffffffff16148061042757506104268133610b8b565b5b610466576040517f08c379a000000000000000000000000000000000000000000000000000000000815260040161045d90610fb5565b60405180910390fd5b826005600084815260200190815260200160002060006101000a81548173ffffffffffffffffffffffffffffffffffffffff021916908373ffffffffffffffffffffffffffffffffffffffff160217905550818373ffffffffffffffffffffffffffffffffffffffff168273ffffffffffffffffffffffffffffffffffffffff167f8c5be1e5ebec7d5bd14f71427d1e84f3dd0314c0f7b2291e5b200ac8c7c3b92560405160405180910390a4505050565b60008054906101000a900473ffffffffffffffffffffffffffffffffffffffff1673ffffffffffffffffffffffffffffffffffffffff16ff5b6000600254905090565b60008373ffffffffffffffffffffffffffffffffffffffff163373ffffffffffffffffffffffffffffffffffffffff1614806105ca575061059b8261039d565b73ffffffffffffffffffffffffffffffffffffffff163373ffffffffffffffffffffffffffffffffffffffff16145b806105db57506105da8433610b8b565b5b90508061061d576040517f08c379a000000000000000000000000000000000000000000000000000000000815260040161061490610fd5565b60405180910390fd5b6001600360008673ffffffffffffffffffffffffffffffffffffffff1673ffffffffffffffffffffffffffffffffffffffff168152602001908152602001600020600082825461066d9190611082565b925050819055506001600360008573ffffffffffffffffffffffffffffffffffffffff1673ffffffffffffffffffffffffffffffffffffffff16815260200190815260200160002060008282546106c4919061102c565b92505081905550826004600084815260200190815260200160002060006101000a81548173ffffffffffffffffffffffffffffffffffffffff021916908373ffffffffffffffffffffffffffffffffffffffff1602179055506107286000836103da565b818373ffffffffffffffffffffffffffffffffffffffff168573ffffffffffffffffffffffffffffffffffffffff167fddf252ad1be2c89b69c2b068fc378daa952ba7f163c4a11628f55a4df523b3ef60405160405180910390a450505050565b66b1a2bc2ec5000081565b60008054906101000a900473ffffffffffffffffffffffffffffffffffffffff1673ffffffffffffffffffffffffffffffffffffffff163373ffffffffffffffffffffffffffffffffffffffff16146107ec57600080fd5b600047905060008060009054906101000a900473ffffffffffffffffffffffffffffffffffffffff1673ffffffffffffffffffffffffffffffffffffffff168260405161083890610f6a565b60006040518083038185875af1925050503d8060008114610875576040519150601f19603f3d011682016040523d82523d6000602084013e61087a565b606091505b505090508061088857600080fd5b5050565b61089783838361055b565b505050565b60006004600083815260200190815260200160002060009054906101000a900473ffffffffffffffffffffffffffffffffffffffff169050919050565b6000600360008373ffffffffffffffffffffffffffffffffffffffff1673ffffffffffffffffffffffffffffffffffffffff168152602001908152602001600020549050919050565b60015481565b80600660003373ffffffffffffffffffffffffffffffffffffffff1673ffffffffffffffffffffffffffffffffffffffff16815260200190815260200160002060008473ffffffffffffffffffffffffffffffffffffffff1673ffffffffffffffffffffffffffffffffffffffff16815260200190815260200160002060006101000a81548160ff0219169083151502179055508173ffffffffffffffffffffffffffffffffffffffff163373ffffffffffffffffffffffffffffffffffffffff167f17307eab39ab6107e8899845ad3d59bd9653f200f220920489ca2b5937696c3183604051610a199190610f9a565b60405180910390a35050565b60025481565b610a3685858561055b565b5050505050565b3466b1a2bc2ec500001115610a5157600080fd5b600160026000828254610a64919061102c565b92505081905550600060025490506001546002541115610a8357600080fd5b6001600360003373ffffffffffffffffffffffffffffffffffffffff1673ffffffffffffffffffffffffffffffffffffffff1681526020019081526020016000206000828254610ad3919061102c565b92505081905550336004600083815260200190815260200160002060006101000a81548173ffffffffffffffffffffffffffffffffffffffff021916908373ffffffffffffffffffffffffffffffffffffffff160217905550803373ffffffffffffffffffffffffffffffffffffffff16600073ffffffffffffffffffffffffffffffffffffffff167fddf252ad1be2c89b69c2b068fc378daa952ba7f163c4a11628f55a4df523b3ef60405160405180910390a450565b6000600660008473ffffffffffffffffffffffffffffffffffffffff1673ffffffffffffffffffffffffffffffffffffffff16815260200190815260200160002060008373ffffffffffffffffffffffffffffffffffffffff1673ffffffffffffffffffffffffffffffffffffffff16815260200190815260200160002060009054906101000a900460ff16905092915050565b600081359050610c2e8161112d565b92915050565b600081359050610c4381611144565b92915050565b60008083601f840112610c5b57600080fd5b8235905067ffffffffffffffff811115610c7457600080fd5b602083019150836001820283011115610c8c57600080fd5b9250929050565b600081359050610ca28161115b565b92915050565b600060208284031215610cba57600080fd5b6000610cc884828501610c1f565b91505092915050565b60008060408385031215610ce457600080fd5b6000610cf285828601610c1f565b9250506020610d0385828601610c1f565b9150509250929050565b600080600060608486031215610d2257600080fd5b6000610d3086828701610c1f565b9350506020610d4186828701610c1f565b9250506040610d5286828701610c93565b9150509250925092565b600080600080600060808688031215610d7457600080fd5b6000610d8288828901610c1f565b9550506020610d9388828901610c1f565b9450506040610da488828901610c93565b935050606086013567ffffffffffffffff811115610dc157600080fd5b610dcd88828901610c49565b92509250509295509295909350565b60008060408385031215610def57600080fd5b6000610dfd85828601610c1f565b9250506020610e0e85828601610c34565b9150509250929050565b60008060408385031215610e2b57600080fd5b6000610e3985828601610c1f565b9250506020610e4a85828601610c93565b9150509250929050565b600060208284031215610e6657600080fd5b6000610e7484828501610c93565b91505092915050565b610e86816110b6565b82525050565b610e95816110c8565b82525050565b6000610ea860288361101b565b91507f43616c6c6572206973206e6f74206f776e6572206e6f7220617070726f76656460008301527f20666f7220616c6c0000000000000000000000000000000000000000000000006020830152604082019050919050565b6000610f0e60208361101b565b91507f43616c6c6572206973206e6f74206f776e6572206e6f7220617070726f7665646000830152602082019050919050565b6000610f4e600083611010565b9150600082019050919050565b610f64816110f4565b82525050565b6000610f7582610f41565b9150819050919050565b6000602082019050610f946000830184610e7d565b92915050565b6000602082019050610faf6000830184610e8c565b92915050565b60006020820190508181036000830152610fce81610e9b565b9050919050565b60006020820190508181036000830152610fee81610f01565b9050919050565b600060208201905061100a6000830184610f5b565b92915050565b600081905092915050565b600082825260208201905092915050565b6000611037826110f4565b9150611042836110f4565b9250827fffffffffffffffffffffffffffffffffffffffffffffffffffffffffffffffff03821115611077576110766110fe565b5b828201905092915050565b600061108d826110f4565b9150611098836110f4565b9250828210156110ab576110aa6110fe565b5b828203905092915050565b60006110c1826110d4565b9050919050565b60008115159050919050565b600073ffffffffffffffffffffffffffffffffffffffff82169050919050565b6000819050919050565b7f4e487b7100000000000000000000000000000000000000000000000000000000600052601160045260246000fd5b611136816110b6565b811461114157600080fd5b50565b61114d816110c8565b811461115857600080fd5b50565b611164816110f4565b811461116f57600080fd5b5056fea2646970667358221220c99e95c88b611e1a20ae225ad5cb46cc6fa927a6855a5bf9e812a4be859dcd4664736f6c63430008000033",
  "linkReferences": {},
  "deployedLinkReferences": {}
}